:100000000C945E000C9486000C9486000C94860080
:100010000C9486000C9486000C9486000C94860048
:100020000C9486000C9486000C9486000C94860038
:100030000C9486000C9486000C9486000C94860028
:100040000C94C5020C9486000C9435030C940F0399
:100050000C9486000C9486000C9486000C94860008
:100060000C9486000C948600000000080002010039
:100070000003040700000000000000000000000072
:10008000250028002B0000000000240027002A0083
:10009000040404040404040402020202020203032E
:1000A0000303030301020408102040800102040836
:1000B000102001020408102067032F0511241FBE21
:1000C000CFEFD8E0DEBFCDBF22E0A6E5B1E001C0B2
:1000D0001D92A630B207E1F711E0A0E0B1E0E4EF35
:1000E000FEE002C005900D92A635B107D9F710E0E9
:1000F000CDE5D0E004C02197FE010E946C05CC350F
:10010000D107C9F70E94DD030C946D070C94000021
:1001100090E0FC01EC55FF4F249180579F4FFC016C
:100120008491882399F090E0880F991FFC01EA5789
:10013000FF4FA591B491FC01E458FF4F8591949134
:100140008FB7F894EC91E22BEC938FBF089508954C
:10015000AF92BF92CF92DF92EF92FF920F931F93D5
:10016000CF93DF936C017B018B01040F151FEB0113
:100170005E01AE18BF08C017D10759F06991D601CA
:10018000ED91FC910190F081E02DC6010995892B3C
:1001900079F7C501DF91CF911F910F91FF90EF90FB
:1001A000DF90CF90BF90AF900895FC01538D448DA8
:1001B000252F30E0842F90E0821B930B541710F012
:1001C000CF96089501970895FC01918D828D98171F
:1001D00061F0A28DAE0FBF2FB11D5D968C91928DF7
:1001E0009F5F9F73928F90E008958FEF9FEF089528
:1001F0002FB7F89480915B0190915C01A0915D0113
:10020000B0915E012FBF8093670190936801A09326
:100210006901B0936A018FE591E00E94E40097FFC5
:1002200026C02FB7F89480915B0190915C01A0915A
:100230005D01B0915E012FBF40916701509168014F
:100240006091690170916A01841B950BA60BB70B35
:100250004091630150916401609165017091660164
:1002600084179507A607B707B0F28FEF9FEF0895A1
:10027000FC01918D828D981731F0828DE80FF11D70
:10028000858D90E008958FEF9FEF0895FC01918D8B
:10029000228D892F90E0805C9F4F821B91098F7384
:1002A000992708958FE591E00E94460121E0892B6E
:1002B00009F420E0822F089580E090E0892B29F056
:1002C0000E94520181110C9400000895FC01A48D3C
:1002D000A80FB92FB11DA35ABF4F2C91848D90E068
:1002E00001968F739927848FA689B7892C93A0894B
:1002F000B1898C91837080648C93938D848D9813D5
:1003000006C00288F389E02D80818F7D8083089567
:10031000EF92FF920F931F93CF93DF93EC0181E055
:10032000888F9B8D8C8D98131AC0E889F9898081FC
:1003300085FF15C09FB7F894EE89FF896083E8892F
:10034000F98980818370806480839FBF81E090E021
:10035000DF91CF911F910F91FF90EF900895F62EAE
:100360000B8D10E00F5F1F4F0F731127E02E8C8D48
:100370008E110CC00FB607FCFACFE889F98980818D
:1003800085FFF5CFCE010E946601F1CFEB8DEC0F1A
:10039000FD2FF11DE35AFF4FF0829FB7F8940B8FAA
:1003A000EA89FB8980818062CFCFCF93DF93EC0114
:1003B000888D8823B9F0AA89BB89E889F9898C914D
:1003C00085FD03C0808186FD0DC00FB607FCF7CF09
:1003D0008C9185FFF2CF808185FFEDCFCE010E9409
:1003E0006601E9CFDF91CF91089590E0FC01E859D3
:1003F000FF4F2491FC01EC55FF4F3491FC01E05775
:10040000FF4FE491EE23C9F0222339F0233001F1AC
:10041000A8F4213019F1223029F1F0E0EE0FFF1F8E
:10042000E458FF4FA591B4918FB7F894EC91611106
:1004300026C030953E233C938FBF08952730A9F006
:100440002830C9F0243049F7809180008F7D03C0A7
:10045000809180008F7780938000DFCF84B58F7785
:1004600084BDDBCF84B58F7DFBCF8091B0008F77CB
:100470008093B000D2CF8091B0008F7DF9CF3E2B1A
:10048000DACF1F93CF93DF93182FEB010E948800E0
:10049000209739F460E0812FDF91CF911F910C9468
:1004A000F501CF3FD10511F461E0F5CFE12FF0E088
:1004B000E859FF4FE491E33031F140F4E130B1F01D
:1004C000E230E1F0C038D1057CF7E4CFE73029F124
:1004D000E83059F1E430B1F7809180008062809378
:1004E0008000D0938B00C0938A0004C084B58068DC
:1004F00084BDC7BDDF91CF911F91089584B58062FF
:1005000084BDC8BDF7CF8091800080688093800053
:10051000D0938900C0938800EDCF8091B0008068AF
:100520008093B000C093B300E5CF8091B0008062AB
:100530008093B000C093B400DDCF0F931F93CF938F
:10054000DF93EC0188819981009759F02A813B81E2
:100550002617370730F081E0DF91CF911F910F917F
:1005600008958B016F5F7F4F0E949706009759F0A7
:10057000998388831B830A832C813D81232B59F720
:10058000FC011082E8CF80E0E7CF1F920F920FB6F8
:100590000F9211242F933F938F939F93AF93BF9309
:1005A00080915B0190915C01A0915D01B0915E0131
:1005B00030915A0123E0230F2D3758F50196A11DE4
:1005C000B11D20935A0180935B0190935C01A0932D
:1005D0005D01B0935E018091560190915701A09109
:1005E0005801B09159010196A11DB11D809356018A
:1005F00090935701A0935801B0935901BF91AF91C7
:100600009F918F913F912F910F900FBE0F901F9050
:10061000189526E8230F0296A11DB11DD2CF1F9277
:100620000F920FB60F9211242F933F934F935F9326
:100630006F937F938F939F93AF93BF93EF93FF93AA
:100640008FE591E00E946601FF91EF91BF91AF911C
:100650009F918F917F916F915F914F913F912F91DA
:100660000F900FBE0F901F9018951F920F920FB60C
:100670000F9211242F938F939F93EF93FF93E09109
:100680006F01F09170018081E0917501F091760128
:1006900082FD1BC09081809178018F5F8F732091C4
:1006A0007901821741F0E0917801F0E0E15AFE4FC4
:1006B000958F80937801FF91EF919F918F912F916A
:1006C0000F900FBE0F901F9018958081F4CF10925D
:1006D00062011092610188EE93E0A0E0B0E08093A7
:1006E000630190936401A0936501B09366018AE071
:1006F00091E09093600180935F0185EC90E090938E
:100700006C0180936B0184EC90E090936E01809378
:100710006D0180EC90E09093700180936F0181EC0B
:1007200090E0909372018093710182EC90E090933D
:1007300074018093730186EC90E09093760180932E
:100740007501109278011092790110927A0110923D
:100750007B011092FD011092FC011092FF0110929A
:10076000FE01109201021092000270E060E08CEF36
:1007700091E00E949D022091FC013091FD018111C8
:1007800013C02115310519F0C9010E940E061092FF
:10079000FD011092FC0110920102109200021092D1
:1007A000FF011092FE0108951092010210920002C2
:1007B00060E571E0C9010C946607CF93DF93CDB774
:1007C000DEB728970FB6F894DEBF0FBECDBF789482
:1007D00084B5826084BD84B5816084BD85B5826046
:1007E00085BD85B5816085BD80916E0081608093F7
:1007F0006E00109281008091810082608093810060
:10080000809181008160809381008091800081606F
:10081000809380008091B10084608093B1008091CA
:10082000B00081608093B00080917A0084608093F2
:100830007A0080917A00826080937A0080917A00B9
:10084000816080937A0080917A00806880937A003A
:100850001092C100E0916F01F091700182E08083FD
:10086000E0916B01F0916C011082E0916D01F091CB
:100870006E018FEC808310927701E0917301F0910B
:10088000740186E08083E0917101F09172018081B2
:1008900080618083E0917101F091720180818860B4
:1008A0008083E0917101F091720180818068808382
:1008B000E0917101F091720180818F7D80838EE0E3
:1008C0000E94880080E0E82E80E0F82E45E350E0AA
:1008D00068E171E08FE591E00E94A80042E050E0FD
:1008E0006EE471E08FE591E00E94A8008FE591E051
:1008F0000E944601892BD1F31A8219821C821B8225
:100900001E821D8270E060E0CE0101960E949D0271
:1009100029813A8181112BC02115310519F0C901B6
:100920000E940E061A8219821E821D821C821B8260
:100930000E94F80097FD23C08F8318860D811E81C9
:100940000F5F1F4FB801CE0101960E949D028823C0
:1009500079F329813A818D819E81BE01695F7F4F44
:10096000820F931F0E9466071E830D83E1CF1E82B4
:100970001D8260E571E0C9010E946607D9CF8091B0
:10098000FC019091FD01009709F454C069817A81BE
:100990006115710509F44CC04091FE015091FF01B1
:1009A0002D813E814217530708F442C00E9466071A
:1009B0008D819E81909301028093000289819A81AA
:1009C0000E940E068091000290910102892B79F01D
:1009D00061E571E08091FC019091FD010E945D074D
:1009E000892B29F470E060E08EE00E944102809142
:1009F000000290910102892B79F063E571E080910A
:100A0000FC019091FD010E945D07892B29F46FEF95
:100A100070E08EE00E944102E114F10409F456CF27
:100A20000E945201882309F451CF0E9400004ECF4A
:100A30000E940E0689819A819093FD018093FC01AA
:100A40008B819C819093FF018093FE018D819E811B
:100A500090930102809300021A821982AFCF809195
:100A6000FC019091FD010C940E062F923F924F9243
:100A70005F926F927F928F929F92AF92BF92CF922E
:100A8000DF92EF92FF920F931F93CF93DF93CDB737
:100A9000DEB7CA1BDB0B0FB6F894DEBF0FBECDBFAF
:100AA00009942A88398848885F846E847D848C8480
:100AB0009B84AA84B984C884DF80EE80FD800C8189
:100AC0001B81AA81B981CE0FD11D0FB6F894DEBF6C
:100AD0000FBECDBFED010895EE0FFF1F0590F491FD
:100AE000E02D09940F931F93CF93DF9382309105EC
:100AF00010F482E090E0E0910402F091050230E011
:100B000020E0B0E0A0E0309799F42115310509F418
:100B10004AC0281B390B24303105D8F58A819B81C6
:100B20006115710589F1FB0193838283FE0111C078
:100B3000408151810281138148175907E0F048171D
:100B4000590799F4109761F012960C931297139627
:100B50001C933296CF01DF91CF911F910F91089591
:100B60000093040210930502F4CF2115310551F0D2
:100B70004217530738F0A901DB019A01BD01DF01DB
:100B8000F801C1CFEF01F9CF9093050280930402E1
:100B9000CDCFFE01E20FF31F8193919322503109D3
:100BA00039832883D7CF2091020230910302232B6F
:100BB00041F420910201309103013093030220930C
:100BC000020220910001309101012115310541F40B
:100BD0002DB73EB74091040150910501241B350B00
:100BE000E0910202F0910302E217F307A0F42E1B3A
:100BF0003F0B2817390778F0AC014E5F5F4F241781
:100C0000350748F04E0F5F1F5093030240930202D6
:100C1000819391939FCFF0E0E0E09CCFCF93DF935F
:100C20000097E9F0FC01329713821282A09104022E
:100C3000B0910502ED0130E020E01097A1F4208191
:100C40003181820F931F20910202309103022817F5
:100C5000390709F061C0F0930302E0930202DF91CB
:100C6000CF910895EA01CE17DF07E8F54A815B814D
:100C70009E0141155105B1F7E901FB83EA834991D2
:100C80005991C40FD51FEC17FD0761F48081918144
:100C90000296840F951FE90199838883828193814D
:100CA0009B838A83F0E0E0E012968D919C911397EC
:100CB0000097B9F52D913C911197CD010296820FC5
:100CC000931F20910202309103022817390739F649
:100CD000309751F51092050210920402B09303026E
:100CE000A0930202BCCFD383C28340815181840F81
:100CF000951FC817D90761F44E5F5F4F88819981AE
:100D0000480F591F518340838A819B81938382833B
:100D10002115310509F0B0CFF0930502E0930402EC
:100D20009ECFFD01DC01C0CF13821282D7CFB0E08D
:100D3000A0E0EDE9F6E00C9437058C01009751F442
:100D4000CB010E9472058C01C801CDB7DEB7E0E18E
:100D50000C945305FC01E60FF71F9C01225031094A
:100D6000E217F30708F49DC0D901CD91DC911197EA
:100D7000C617D70798F0C530D10530F3CE010497D8
:100D80008617970708F3C61BD70B2297C193D193F9
:100D90006D937C93CF010E940E06D6CF5B01AC1AF7
:100DA000BD0A4C018C0E9D1EA0910402B09105025B
:100DB000512C412CF12CE12C109731F5809102023D
:100DC000909103028815990509F05CC046165706F4
:100DD00008F058C08091000190910101009741F402
:100DE0008DB79EB74091040150910501841B950B6E
:100DF000E817F90708F055C0F0930302E0930202E8
:100E0000F90171836083A0CF8D919C911197129607
:100E10006C90129713967C901397A815B90559F505
:100E20006C0142E0C40ED11CCA14DB0420F1AC01F9
:100E30004A195B09DA011296159780F06282738273
:100E400051834083D9016D937C93E114F10471F0D7
:100E5000D7011396FC93EE93129776CF22968C0FC0
:100E60009D1FF90191838083F301EFCFF093050279
:100E7000E093040269CF4816590608F42C017D015D
:100E8000D3019ACFCB010E9472057C01009749F0F3
:100E9000AE01B8010E945407C8010E940E068701E6
:100EA00053CF10E000E050CFFB01DC0102C0019005
:100EB0000D9241505040D8F70895FB01DC018D910F
:100EC000019080190110D9F3990B0895FB01DC0101
:100ED00001900D920020E1F7089510E0CDE5D0E0FB
:100EE00004C0FE010E946C052196CE35D107C9F7DA
:040EF000F894FFCFA4
:100EF400000006028000000000008801A800D50060
:100F0400D5014601E400380153696C61686B616E78
:100F1400206B6574696B2027702720756E74756B60
:100F2400206D656D757461722C2027732720756E92
:100F340074756B2062657268656E746920000D0AB1
:060F4400007000730000C4
:00000001FF
